:100000000C942A000C943F000C943F000C943F0089
:100010000C943F000C943F000C943F000C943F0064
:100020000C943F000C943F000C943F000C943F0054
:100030000C943F000C943F000C943F000C943F0044
:100040000C943F000C943F000C943F000C943F0034
:100050000C943F0011241FBECFE5D8E0DEBFCDBF1A
:1000600010E0A0E6B0E0EAE5F1E002C005900D92F4
:10007000A637B107D9F70E9472000C94AB000C941C
:10008000000088E18AB986E880BD1BB883E089B9A1
:1000900010BC08955D9BFECF8CB908950F931F93FC
:1000A000CF93DF93FC01D62FC0E008C08F010F5F14
:1000B0001F4F80810E944A00CF5FF801CD17B0F337
:1000C000DF91CF911F910F91089520E030E006C09D
:1000D000FC01E20FF31F10822F5F3F4F26173707F7
:1000E000B8F30895CF93DF93CDB7DEB7C456D109E7
:1000F0000FB6F894DEBF0FBECDBFFE01319684E689
:10010000DF011D928A95E9F70E94410085E1E0E652
:10011000F0E08E010F5F1F4FD80101900D928A957C
:10012000E1F7F80101900020E9F73197BF01601B6A
:10013000710BC8010E944E0064E670E0C8010E9485
:100140006500BFEF2FE382E0B15020408040E1F72F
:0A01500000C00000DBCFF894FFCFE1
:10015A003C55617274205072696E742054657374D0
:06016A003E3A200A0000ED
:00000001FF
